{
  "_format": "hh-sol-artifact-1",
  "contractName": "Twitter",
  "sourceName": "contracts/Twitter.sol",
  "abi": [
    {
      "inputs": [],
      "stateMutability": "nonpayable",
      "type": "constructor"
    },
    {
      "inputs": [],
      "name": "DeletedTweet",
      "type": "error"
    },
    {
      "inputs": [],
      "name": "IdError",
      "type": "error"
    },
    {
      "inputs": [],
      "name": "InvalidMessage",
      "type": "error"
    },
    {
      "inputs": [],
      "name": "LikeTweetError",
      "type": "error"
    },
    {
      "inputs": [],
      "name": "UnauthorizedAccess",
      "type": "error"
    },
    {
      "inputs": [],
      "name": "UnlikeTweetError",
      "type": "error"
    },
    {
      "anonymous": false,
      "inputs": [
        {
          "indexed": false,
          "internalType": "uint256",
          "name": "index",
          "type": "uint256"
        },
        {
          "indexed": false,
          "internalType": "bool",
          "name": "status",
          "type": "bool"
        }
      ],
      "name": "DeleteTweet",
      "type": "event"
    },
    {
      "anonymous": false,
      "inputs": [
        {
          "indexed": false,
          "internalType": "uint256",
          "name": "index",
          "type": "uint256"
        },
        {
          "indexed": false,
          "internalType": "string",
          "name": "newTweet",
          "type": "string"
        }
      ],
      "name": "EditTweet",
      "type": "event"
    },
    {
      "anonymous": false,
      "inputs": [
        {
          "indexed": false,
          "internalType": "uint256",
          "name": "index",
          "type": "uint256"
        },
        {
          "indexed": false,
          "internalType": "uint256",
          "name": "likes",
          "type": "uint256"
        }
      ],
      "name": "LikeTweet",
      "type": "event"
    },
    {
      "anonymous": false,
      "inputs": [
        {
          "indexed": false,
          "internalType": "uint256",
          "name": "index",
          "type": "uint256"
        }
      ],
      "name": "NewTweet",
      "type": "event"
    },
    {
      "inputs": [
        {
          "internalType": "string",
          "name": "message",
          "type": "string"
        }
      ],
      "name": "addTweet",
      "outputs": [],
      "stateMutability": "nonpayable",
      "type": "function"
    },
    {
      "inputs": [
        {
          "internalType": "uint256",
          "name": "index",
          "type": "uint256"
        },
        {
          "internalType": "string",
          "name": "newMessage",
          "type": "string"
        }
      ],
      "name": "editTweet",
      "outputs": [],
      "stateMutability": "nonpayable",
      "type": "function"
    },
    {
      "inputs": [
        {
          "internalType": "uint256",
          "name": "index",
          "type": "uint256"
        }
      ],
      "name": "getLikes",
      "outputs": [
        {
          "internalType": "address[]",
          "name": "",
          "type": "address[]"
        }
      ],
      "stateMutability": "view",
      "type": "function"
    },
    {
      "inputs": [],
      "name": "getTweets",
      "outputs": [
        {
          "components": [
            {
              "internalType": "uint256",
              "name": "id",
              "type": "uint256"
            },
            {
              "internalType": "uint256",
              "name": "tweetTime",
              "type": "uint256"
            },
            {
              "internalType": "address",
              "name": "senderAddress",
              "type": "address"
            },
            {
              "internalType": "string",
              "name": "tweet",
              "type": "string"
            },
            {
              "internalType": "bool",
              "name": "isActive",
              "type": "bool"
            },
            {
              "internalType": "uint256",
              "name": "likes",
              "type": "uint256"
            }
          ],
          "internalType": "struct Twitter.Tweet[]",
          "name": "",
          "type": "tuple[]"
        }
      ],
      "stateMutability": "view",
      "type": "function"
    },
    {
      "inputs": [],
      "name": "getValidTweetsLength",
      "outputs": [
        {
          "internalType": "uint256",
          "name": "",
          "type": "uint256"
        }
      ],
      "stateMutability": "view",
      "type": "function"
    },
    {
      "inputs": [
        {
          "internalType": "uint256",
          "name": "index",
          "type": "uint256"
        }
      ],
      "name": "likeTweet",
      "outputs": [],
      "stateMutability": "nonpayable",
      "type": "function"
    },
    {
      "inputs": [
        {
          "internalType": "uint256",
          "name": "index",
          "type": "uint256"
        }
      ],
      "name": "remove",
      "outputs": [],
      "stateMutability": "nonpayable",
      "type": "function"
    },
    {
      "inputs": [
        {
          "internalType": "uint256",
          "name": "index",
          "type": "uint256"
        }
      ],
      "name": "unlikeTweet",
      "outputs": [],
      "stateMutability": "nonpayable",
      "type": "function"
    }
  ],
  "bytecode": "0x608060405234801561001057600080fd5b50600080819055506000600181905550611bd08061002f6000396000f3fe608060405234801561001057600080fd5b50600436106100885760003560e01c806387f10dbd1161005b57806387f10dbd146100fd578063a209081e1461011b578063eae9e1351461014b578063fc86741f1461016757610088565b80631d86e9041461008d5780634cc82215146100a957806359ee12bc146100c55780635ffc6ceb146100e1575b600080fd5b6100a760048036038101906100a29190611034565b610185565b005b6100c360048036038101906100be9190611034565b61041d565b005b6100df60048036038101906100da91906111a7565b610602565b005b6100fb60048036038101906100f69190611034565b6107c9565b005b610105610a60565b60405161011291906111ff565b60405180910390f35b61013560048036038101906101309190611034565b610a77565b604051610142919061130a565b60405180910390f35b6101656004803603810190610160919061138c565b610b1e565b005b61016f610d74565b60405161017c91906115e0565b60405180910390f35b600073ffffffffffffffffffffffffffffffffffffffff166002600083815260200190815260200160002060020160009054906101000a900473ffffffffffffffffffffffffffffffffffffffff1673ffffffffffffffffffffffffffffffffffffffff1603610221576040517feb00248600000000000000000000000000000000000000000000000000000000815260040160405180910390fd5b60006002600083815260200190815260200160002090508060040160009054906101000a900460ff16610280576040517f29de661200000000000000000000000000000000000000000000000000000000815260040160405180910390fd5b600060036000848152602001908152602001600020905060005b81805490508110156103e7573373ffffffffffffffffffffffffffffffffffffffff168282815481106102d0576102cf611602565b5b9060005260206000200160009054906101000a900473ffffffffffffffffffffffffffffffffffffffff1673ffffffffffffffffffffffffffffffffffffffff16036103d457600082828154811061032b5761032a611602565b5b9060005260206000200160006101000a81548173ffffffffffffffffffffffffffffffffffffffff021916908373ffffffffffffffffffffffffffffffffffffffff16021790555060018360050160008282546103889190611660565b925050819055507fce95d00b5d978b6c1ea0db3dea02ad6b73bd5f44eaf3626d9c7c30dedbca69668484600501546040516103c4929190611694565b60405180910390a150505061041a565b80806103df906116bd565b91505061029a565b506040517f4752041100000000000000000000000000000000000000000000000000000000815260040160405180910390fd5b50565b6000600260008381526020019081526020016000209050600073ffffffffffffffffffffffffffffffffffffffff168160020160009054906101000a900473ffffffffffffffffffffffffffffffffffffffff1673ffffffffffffffffffffffffffffffffffffffff16036104be576040517feb00248600000000000000000000000000000000000000000000000000000000815260040160405180910390fd5b8060020160009054906101000a900473ffffffffffffffffffffffffffffffffffffffff1673ffffffffffffffffffffffffffffffffffffffff163373ffffffffffffffffffffffffffffffffffffffff1614610547576040517f344fd58600000000000000000000000000000000000000000000000000000000815260040160405180910390fd5b8060040160009054906101000a900460ff1661058f576040517f29de661200000000000000000000000000000000000000000000000000000000815260040160405180910390fd5b60008160040160006101000a81548160ff021916908315150217905550600160008154809291906105bf906116bd565b91905055507f2430f837dd2fb40e08c064be9db3d0cf2a7a21f8fe716a2a41787dafc66a7e2a8260006040516105f6929190611714565b60405180910390a15050565b6101188151111561063f576040517f6eca2e4b00000000000000000000000000000000000000000000000000000000815260040160405180910390fd5b60018151101561067b576040517f6eca2e4b00000000000000000000000000000000000000000000000000000000815260040160405180910390fd5b6040518060c0016040528060005481526020014281526020013373ffffffffffffffffffffffffffffffffffffffff16815260200182815260200160011515815260200160008152506002600080548152602001908152602001600020600082015181600001556020820151816001015560408201518160020160006101000a81548173ffffffffffffffffffffffffffffffffffffffff021916908373ffffffffffffffffffffffffffffffffffffffff16021790555060608201518160030190816107489190611949565b5060808201518160040160006101000a81548160ff02191690831515021790555060a08201518160050155905050600080815480929190610788906116bd565b91905055507f63f98618fdb05cc256b39a96bc1387da845aaa913878ac10cc93239bdc4a37b66000546040516107be91906111ff565b60405180910390a150565b600073ffffffffffffffffffffffffffffffffffffffff166002600083815260200190815260200160002060020160009054906101000a900473ffffffffffffffffffffffffffffffffffffffff1673ffffffffffffffffffffffffffffffffffffffff1603610865576040517feb00248600000000000000000000000000000000000000000000000000000000815260040160405180910390fd5b60006002600083815260200190815260200160002090508060040160009054906101000a900460ff166108c4576040517f29de661200000000000000000000000000000000000000000000000000000000815260040160405180910390fd5b600060036000848152602001908152602001600020905060005b818054905081101561099f573373ffffffffffffffffffffffffffffffffffffffff1682828154811061091457610913611602565b5b9060005260206000200160009054906101000a900473ffffffffffffffffffffffffffffffffffffffff1673ffffffffffffffffffffffffffffffffffffffff160361098c576040517f89ea72fe00000000000000000000000000000000000000000000000000000000815260040160405180910390fd5b8080610997906116bd565b9150506108de565b5060018260050160008282546109b59190611a1b565b9250508190555080339080600181540180825580915050600190039060005260206000200160009091909190916101000a81548173ffffffffffffffffffffffffffffffffffffffff021916908373ffffffffffffffffffffffffffffffffffffffff1602179055507fce95d00b5d978b6c1ea0db3dea02ad6b73bd5f44eaf3626d9c7c30dedbca6966838360050154604051610a53929190611694565b60405180910390a1505050565b6000600154600054610a729190611660565b905090565b6060600060036000848152602001908152602001600020905080805480602002602001604051908101604052809291908181526020018280548015610b1157602002820191906000526020600020905b8160009054906101000a900473ffffffffffffffffffffffffffffffffffffffff1673ffffffffffffffffffffffffffffffffffffffff1681526020019060010190808311610ac7575b5050505050915050919050565b610118828290501115610b5d576040517f6eca2e4b00000000000000000000000000000000000000000000000000000000815260040160405180910390fd5b6001828290501015610b9b576040517f6eca2e4b00000000000000000000000000000000000000000000000000000000815260040160405180910390fd5b600073ffffffffffffffffffffffffffffffffffffffff166002600085815260200190815260200160002060020160009054906101000a900473ffffffffffffffffffffffffffffffffffffffff1673ffffffffffffffffffffffffffffffffffffffff1603610c37576040517feb00248600000000000000000000000000000000000000000000000000000000815260040160405180910390fd5b60006002600085815260200190815260200160002090508060020160009054906101000a900473ffffffffffffffffffffffffffffffffffffffff1673ffffffffffffffffffffffffffffffffffffffff163373ffffffffffffffffffffffffffffffffffffffff1614610cd7576040517f344fd58600000000000000000000000000000000000000000000000000000000815260040160405180910390fd5b8060040160009054906101000a900460ff16610d1f576040517f29de661200000000000000000000000000000000000000000000000000000000815260040160405180910390fd5b8282826003019182610d32929190611a5a565b507f171abca5914742d52ad6c6b370521d2daaedebf4a57af6e69a18c723d9d6fdce848484604051610d6693929190611b68565b60405180910390a150505050565b60606000600154600054610d889190611660565b67ffffffffffffffff811115610da157610da061107c565b5b604051908082528060200260200182016040528015610dda57816020015b610dc7610f9c565b815260200190600190039081610dbf5790505b5090506000805b600054811015610f93576002600082815260200190815260200160002060040160009054906101000a900460ff1615610f8057600260008281526020019081526020016000206040518060c001604052908160008201548152602001600182015481526020016002820160009054906101000a900473ffffffffffffffffffffffffffffffffffffffff1673ffffffffffffffffffffffffffffffffffffffff1673ffffffffffffffffffffffffffffffffffffffff168152602001600382018054610eac9061176c565b80601f0160208091040260200160405190810160405280929190818152602001828054610ed89061176c565b8015610f255780601f10610efa57610100808354040283529160200191610f25565b820191906000526020600020905b815481529060010190602001808311610f0857829003601f168201915b505050505081526020016004820160009054906101000a900460ff16151515158152602001600582015481525050838381518110610f6657610f65611602565b5b60200260200101819052508180610f7c906116bd565b9250505b8080610f8b906116bd565b915050610de1565b50819250505090565b6040518060c001604052806000815260200160008152602001600073ffffffffffffffffffffffffffffffffffffffff16815260200160608152602001600015158152602001600081525090565b6000604051905090565b600080fd5b600080fd5b6000819050919050565b61101181610ffe565b811461101c57600080fd5b50565b60008135905061102e81611008565b92915050565b60006020828403121561104a57611049610ff4565b5b60006110588482850161101f565b91505092915050565b600080fd5b600080fd5b6000601f19601f8301169050919050565b7f4e487b7100000000000000000000000000000000000000000000000000000000600052604160045260246000fd5b6110b48261106b565b810181811067ffffffffffffffff821117156110d3576110d261107c565b5b80604052505050565b60006110e6610fea565b90506110f282826110ab565b919050565b600067ffffffffffffffff8211156111125761111161107c565b5b61111b8261106b565b9050602081019050919050565b82818337600083830152505050565b600061114a611145846110f7565b6110dc565b90508281526020810184848401111561116657611165611066565b5b611171848285611128565b509392505050565b600082601f83011261118e5761118d611061565b5b813561119e848260208601611137565b91505092915050565b6000602082840312156111bd576111bc610ff4565b5b600082013567ffffffffffffffff8111156111db576111da610ff9565b5b6111e784828501611179565b91505092915050565b6111f981610ffe565b82525050565b600060208201905061121460008301846111f0565b92915050565b600081519050919050565b600082825260208201905092915050565b6000819050602082019050919050565b600073ffffffffffffffffffffffffffffffffffffffff82169050919050565b600061127182611246565b9050919050565b61128181611266565b82525050565b60006112938383611278565b60208301905092915050565b6000602082019050919050565b60006112b78261121a565b6112c18185611225565b93506112cc83611236565b8060005b838110156112fd5781516112e48882611287565b97506112ef8361129f565b9250506001810190506112d0565b5085935050505092915050565b6000602082019050818103600083015261132481846112ac565b905092915050565b600080fd5b600080fd5b60008083601f84011261134c5761134b611061565b5b8235905067ffffffffffffffff8111156113695761136861132c565b5b60208301915083600182028301111561138557611384611331565b5b9250929050565b6000806000604084860312156113a5576113a4610ff4565b5b60006113b38682870161101f565b935050602084013567ffffffffffffffff8111156113d4576113d3610ff9565b5b6113e086828701611336565b92509250509250925092565b600081519050919050565b600082825260208201905092915050565b6000819050602082019050919050565b61142181610ffe565b82525050565b600081519050919050565b600082825260208201905092915050565b60005b83811015611461578082015181840152602081019050611446565b60008484015250505050565b600061147882611427565b6114828185611432565b9350611492818560208601611443565b61149b8161106b565b840191505092915050565b60008115159050919050565b6114bb816114a6565b82525050565b600060c0830160008301516114d96000860182611418565b5060208301516114ec6020860182611418565b5060408301516114ff6040860182611278565b5060608301518482036060860152611517828261146d565b915050608083015161152c60808601826114b2565b5060a083015161153f60a0860182611418565b508091505092915050565b600061155683836114c1565b905092915050565b6000602082019050919050565b6000611576826113ec565b61158081856113f7565b93508360208202850161159285611408565b8060005b858110156115ce57848403895281516115af858261154a565b94506115ba8361155e565b925060208a01995050600181019050611596565b50829750879550505050505092915050565b600060208201905081810360008301526115fa818461156b565b905092915050565b7f4e487b7100000000000000000000000000000000000000000000000000000000600052603260045260246000fd5b7f4e487b7100000000000000000000000000000000000000000000000000000000600052601160045260246000fd5b600061166b82610ffe565b915061167683610ffe565b925082820390508181111561168e5761168d611631565b5b92915050565b60006040820190506116a960008301856111f0565b6116b660208301846111f0565b9392505050565b60006116c882610ffe565b91507fffffffffffffffffffffffffffffffffffffffffffffffffffffffffffffffff82036116fa576116f9611631565b5b600182019050919050565b61170e816114a6565b82525050565b600060408201905061172960008301856111f0565b6117366020830184611705565b9392505050565b7f4e487b7100000000000000000000000000000000000000000000000000000000600052602260045260246000fd5b6000600282049050600182168061178457607f821691505b6020821081036117975761179661173d565b5b50919050565b60008190508160005260206000209050919050565b60006020601f8301049050919050565b600082821b905092915050565b6000600883026117ff7fffffffffffffffffffffffffffffffffffffffffffffffffffffffffffffffff826117c2565b61180986836117c2565b95508019841693508086168417925050509392505050565b6000819050919050565b600061184661184161183c84610ffe565b611821565b610ffe565b9050919050565b6000819050919050565b6118608361182b565b61187461186c8261184d565b8484546117cf565b825550505050565b600090565b61188961187c565b611894818484611857565b505050565b5b818110156118b8576118ad600082611881565b60018101905061189a565b5050565b601f8211156118fd576118ce8161179d565b6118d7846117b2565b810160208510156118e6578190505b6118fa6118f2856117b2565b830182611899565b50505b505050565b600082821c905092915050565b600061192060001984600802611902565b1980831691505092915050565b6000611939838361190f565b9150826002028217905092915050565b61195282611427565b67ffffffffffffffff81111561196b5761196a61107c565b5b611975825461176c565b6119808282856118bc565b600060209050601f8311600181146119b357600084156119a1578287015190505b6119ab858261192d565b865550611a13565b601f1984166119c18661179d565b60005b828110156119e9578489015182556001820191506020850194506020810190506119c4565b86831015611a065784890151611a02601f89168261190f565b8355505b6001600288020188555050505b505050505050565b6000611a2682610ffe565b9150611a3183610ffe565b9250828201905080821115611a4957611a48611631565b5b92915050565b600082905092915050565b611a648383611a4f565b67ffffffffffffffff811115611a7d57611a7c61107c565b5b611a87825461176c565b611a928282856118bc565b6000601f831160018114611ac15760008415611aaf578287013590505b611ab9858261192d565b865550611b21565b601f198416611acf8661179d565b60005b82811015611af757848901358255600182019150602085019450602081019050611ad2565b86831015611b145784890135611b10601f89168261190f565b8355505b6001600288020188555050505b50505050505050565b600082825260208201905092915050565b6000611b478385611b2a565b9350611b54838584611128565b611b5d8361106b565b840190509392505050565b6000604082019050611b7d60008301866111f0565b8181036020830152611b90818486611b3b565b905094935050505056fea264697066735822122085be4971b7f0d6c7111294e47398c87db97b134bd63bf73a1d60ed8cc01eb05a64736f6c63430008110033",
  "linkReferences": {},
  "deployedLinkReferences": {}
}