{
  "_format": "hh-sol-artifact-1",
  "contractName": "Twitter",
  "sourceName": "contracts/Twitter.sol",
  "abi": [
    {
      "inputs": [],
      "stateMutability": "nonpayable",
      "type": "constructor"
    },
    {
      "inputs": [],
      "name": "DeletedTweet",
      "type": "error"
    },
    {
      "inputs": [],
      "name": "IdError",
      "type": "error"
    },
    {
      "inputs": [],
      "name": "InvalidMessage",
      "type": "error"
    },
    {
      "inputs": [],
      "name": "UnauthorizedAccess",
      "type": "error"
    },
    {
      "anonymous": false,
      "inputs": [
        {
          "indexed": false,
          "internalType": "uint256",
          "name": "index",
          "type": "uint256"
        },
        {
          "indexed": false,
          "internalType": "bool",
          "name": "status",
          "type": "bool"
        }
      ],
      "name": "DeleteTweet",
      "type": "event"
    },
    {
      "anonymous": false,
      "inputs": [
        {
          "indexed": false,
          "internalType": "uint256",
          "name": "index",
          "type": "uint256"
        },
        {
          "indexed": false,
          "internalType": "string",
          "name": "newTweet",
          "type": "string"
        }
      ],
      "name": "EditTweet",
      "type": "event"
    },
    {
      "anonymous": false,
      "inputs": [
        {
          "indexed": false,
          "internalType": "uint256",
          "name": "index",
          "type": "uint256"
        }
      ],
      "name": "NewTweet",
      "type": "event"
    },
    {
      "inputs": [
        {
          "internalType": "string",
          "name": "message",
          "type": "string"
        }
      ],
      "name": "addTweet",
      "outputs": [],
      "stateMutability": "nonpayable",
      "type": "function"
    },
    {
      "inputs": [
        {
          "internalType": "uint256",
          "name": "index",
          "type": "uint256"
        },
        {
          "internalType": "string",
          "name": "newMessage",
          "type": "string"
        }
      ],
      "name": "editTweet",
      "outputs": [],
      "stateMutability": "nonpayable",
      "type": "function"
    },
    {
      "inputs": [],
      "name": "getTweets",
      "outputs": [
        {
          "components": [
            {
              "internalType": "uint256",
              "name": "id",
              "type": "uint256"
            },
            {
              "internalType": "uint256",
              "name": "tweetTime",
              "type": "uint256"
            },
            {
              "internalType": "address",
              "name": "senderAddress",
              "type": "address"
            },
            {
              "internalType": "string",
              "name": "tweet",
              "type": "string"
            },
            {
              "internalType": "bool",
              "name": "isActive",
              "type": "bool"
            }
          ],
          "internalType": "struct Twitter.Tweet[]",
          "name": "",
          "type": "tuple[]"
        }
      ],
      "stateMutability": "view",
      "type": "function"
    },
    {
      "inputs": [],
      "name": "getValidTweetsLength",
      "outputs": [
        {
          "internalType": "uint256",
          "name": "",
          "type": "uint256"
        }
      ],
      "stateMutability": "view",
      "type": "function"
    },
    {
      "inputs": [
        {
          "internalType": "uint256",
          "name": "index",
          "type": "uint256"
        }
      ],
      "name": "remove",
      "outputs": [],
      "stateMutability": "nonpayable",
      "type": "function"
    },
    {
      "inputs": [
        {
          "internalType": "uint256",
          "name": "",
          "type": "uint256"
        }
      ],
      "name": "tweets",
      "outputs": [
        {
          "internalType": "uint256",
          "name": "id",
          "type": "uint256"
        },
        {
          "internalType": "uint256",
          "name": "tweetTime",
          "type": "uint256"
        },
        {
          "internalType": "address",
          "name": "senderAddress",
          "type": "address"
        },
        {
          "internalType": "string",
          "name": "tweet",
          "type": "string"
        },
        {
          "internalType": "bool",
          "name": "isActive",
          "type": "bool"
        }
      ],
      "stateMutability": "view",
      "type": "function"
    }
  ],
  "bytecode": "0x608060405234801561001057600080fd5b506000808190555060006001819055506115508061002f6000396000f3fe608060405234801561001057600080fd5b50600436106100625760003560e01c80634cc822151461006757806359ee12bc1461008357806387f10dbd1461009f578063e8d857b0146100bd578063eae9e135146100f1578063fc86741f1461010d575b600080fd5b610081600480360381019061007c9190610a53565b61012b565b005b61009d60048036038101906100989190610bc6565b610310565b005b6100a761048a565b6040516100b49190610c1e565b60405180910390f35b6100d760048036038101906100d29190610a53565b6104a1565b6040516100e8959493929190610d14565b60405180910390f35b61010b60048036038101906101069190610dce565b61058c565b005b6101156107a4565b6040516101229190610fdd565b60405180910390f35b6000600260008381526020019081526020016000209050600073ffffffffffffffffffffffffffffffffffffffff168160020160009054906101000a900473ffffffffffffffffffffffffffffffffffffffff1673ffffffffffffffffffffffffffffffffffffffff16036101cc576040517feb00248600000000000000000000000000000000000000000000000000000000815260040160405180910390fd5b8060020160009054906101000a900473ffffffffffffffffffffffffffffffffffffffff1673ffffffffffffffffffffffffffffffffffffffff163373ffffffffffffffffffffffffffffffffffffffff1614610255576040517f344fd58600000000000000000000000000000000000000000000000000000000815260040160405180910390fd5b8060040160009054906101000a900460ff1661029d576040517f29de661200000000000000000000000000000000000000000000000000000000815260040160405180910390fd5b60008160040160006101000a81548160ff021916908315150217905550600160008154809291906102cd9061102e565b91905055507f2430f837dd2fb40e08c064be9db3d0cf2a7a21f8fe716a2a41787dafc66a7e2a826000604051610304929190611076565b60405180910390a15050565b6101188151111561034d576040517f6eca2e4b00000000000000000000000000000000000000000000000000000000815260040160405180910390fd5b6040518060a0016040528060005481526020014281526020013373ffffffffffffffffffffffffffffffffffffffff168152602001828152602001600115158152506002600080548152602001908152602001600020600082015181600001556020820151816001015560408201518160020160006101000a81548173ffffffffffffffffffffffffffffffffffffffff021916908373ffffffffffffffffffffffffffffffffffffffff160217905550606082015181600301908161041391906112ab565b5060808201518160040160006101000a81548160ff0219169083151502179055509050506000808154809291906104499061102e565b91905055507f63f98618fdb05cc256b39a96bc1387da845aaa913878ac10cc93239bdc4a37b660005460405161047f9190610c1e565b60405180910390a150565b600060015460005461049c919061137d565b905090565b60026020528060005260406000206000915090508060000154908060010154908060020160009054906101000a900473ffffffffffffffffffffffffffffffffffffffff16908060030180546104f6906110ce565b80601f0160208091040260200160405190810160405280929190818152602001828054610522906110ce565b801561056f5780601f106105445761010080835404028352916020019161056f565b820191906000526020600020905b81548152906001019060200180831161055257829003601f168201915b5050505050908060040160009054906101000a900460ff16905085565b6101188282905011156105cb576040517f6eca2e4b00000000000000000000000000000000000000000000000000000000815260040160405180910390fd5b600073ffffffffffffffffffffffffffffffffffffffff166002600085815260200190815260200160002060020160009054906101000a900473ffffffffffffffffffffffffffffffffffffffff1673ffffffffffffffffffffffffffffffffffffffff1603610667576040517feb00248600000000000000000000000000000000000000000000000000000000815260040160405180910390fd5b60006002600085815260200190815260200160002090508060020160009054906101000a900473ffffffffffffffffffffffffffffffffffffffff1673ffffffffffffffffffffffffffffffffffffffff163373ffffffffffffffffffffffffffffffffffffffff1614610707576040517f344fd58600000000000000000000000000000000000000000000000000000000815260040160405180910390fd5b8060040160009054906101000a900460ff1661074f576040517f29de661200000000000000000000000000000000000000000000000000000000815260040160405180910390fd5b82828260030191826107629291906113bc565b507f171abca5914742d52ad6c6b370521d2daaedebf4a57af6e69a18c723d9d6fdce848484604051610796939291906114b9565b60405180910390a150505050565b606060006001546000546107b8919061137d565b67ffffffffffffffff8111156107d1576107d0610a9b565b5b60405190808252806020026020018201604052801561080a57816020015b6107f76109c2565b8152602001906001900390816107ef5790505b5090506000805b6000548110156109b9576002600082815260200190815260200160002060040160009054906101000a900460ff16156109a657600260008281526020019081526020016000206040518060a001604052908160008201548152602001600182015481526020016002820160009054906101000a900473ffffffffffffffffffffffffffffffffffffffff1673ffffffffffffffffffffffffffffffffffffffff1673ffffffffffffffffffffffffffffffffffffffff1681526020016003820180546108dc906110ce565b80601f0160208091040260200160405190810160405280929190818152602001828054610908906110ce565b80156109555780601f1061092a57610100808354040283529160200191610955565b820191906000526020600020905b81548152906001019060200180831161093857829003601f168201915b505050505081526020016004820160009054906101000a900460ff16151515158152505083838151811061098c5761098b6114eb565b5b602002602001018190525081806109a29061102e565b9250505b80806109b19061102e565b915050610811565b50819250505090565b6040518060a001604052806000815260200160008152602001600073ffffffffffffffffffffffffffffffffffffffff168152602001606081526020016000151581525090565b6000604051905090565b600080fd5b600080fd5b6000819050919050565b610a3081610a1d565b8114610a3b57600080fd5b50565b600081359050610a4d81610a27565b92915050565b600060208284031215610a6957610a68610a13565b5b6000610a7784828501610a3e565b91505092915050565b600080fd5b600080fd5b6000601f19601f8301169050919050565b7f4e487b7100000000000000000000000000000000000000000000000000000000600052604160045260246000fd5b610ad382610a8a565b810181811067ffffffffffffffff82111715610af257610af1610a9b565b5b80604052505050565b6000610b05610a09565b9050610b118282610aca565b919050565b600067ffffffffffffffff821115610b3157610b30610a9b565b5b610b3a82610a8a565b9050602081019050919050565b82818337600083830152505050565b6000610b69610b6484610b16565b610afb565b905082815260208101848484011115610b8557610b84610a85565b5b610b90848285610b47565b509392505050565b600082601f830112610bad57610bac610a80565b5b8135610bbd848260208601610b56565b91505092915050565b600060208284031215610bdc57610bdb610a13565b5b600082013567ffffffffffffffff811115610bfa57610bf9610a18565b5b610c0684828501610b98565b91505092915050565b610c1881610a1d565b82525050565b6000602082019050610c336000830184610c0f565b92915050565b600073ffffffffffffffffffffffffffffffffffffffff82169050919050565b6000610c6482610c39565b9050919050565b610c7481610c59565b82525050565b600081519050919050565b600082825260208201905092915050565b60005b83811015610cb4578082015181840152602081019050610c99565b60008484015250505050565b6000610ccb82610c7a565b610cd58185610c85565b9350610ce5818560208601610c96565b610cee81610a8a565b840191505092915050565b60008115159050919050565b610d0e81610cf9565b82525050565b600060a082019050610d296000830188610c0f565b610d366020830187610c0f565b610d436040830186610c6b565b8181036060830152610d558185610cc0565b9050610d646080830184610d05565b9695505050505050565b600080fd5b600080fd5b60008083601f840112610d8e57610d8d610a80565b5b8235905067ffffffffffffffff811115610dab57610daa610d6e565b5b602083019150836001820283011115610dc757610dc6610d73565b5b9250929050565b600080600060408486031215610de757610de6610a13565b5b6000610df586828701610a3e565b935050602084013567ffffffffffffffff811115610e1657610e15610a18565b5b610e2286828701610d78565b92509250509250925092565b600081519050919050565b600082825260208201905092915050565b6000819050602082019050919050565b610e6381610a1d565b82525050565b610e7281610c59565b82525050565b600082825260208201905092915050565b6000610e9482610c7a565b610e9e8185610e78565b9350610eae818560208601610c96565b610eb781610a8a565b840191505092915050565b610ecb81610cf9565b82525050565b600060a083016000830151610ee96000860182610e5a565b506020830151610efc6020860182610e5a565b506040830151610f0f6040860182610e69565b5060608301518482036060860152610f278282610e89565b9150506080830151610f3c6080860182610ec2565b508091505092915050565b6000610f538383610ed1565b905092915050565b6000602082019050919050565b6000610f7382610e2e565b610f7d8185610e39565b935083602082028501610f8f85610e4a565b8060005b85811015610fcb5784840389528151610fac8582610f47565b9450610fb783610f5b565b925060208a01995050600181019050610f93565b50829750879550505050505092915050565b60006020820190508181036000830152610ff78184610f68565b905092915050565b7f4e487b7100000000000000000000000000000000000000000000000000000000600052601160045260246000fd5b600061103982610a1d565b91507fffffffffffffffffffffffffffffffffffffffffffffffffffffffffffffffff820361106b5761106a610fff565b5b600182019050919050565b600060408201905061108b6000830185610c0f565b6110986020830184610d05565b9392505050565b7f4e487b7100000000000000000000000000000000000000000000000000000000600052602260045260246000fd5b600060028204905060018216806110e657607f821691505b6020821081036110f9576110f861109f565b5b50919050565b60008190508160005260206000209050919050565b60006020601f8301049050919050565b600082821b905092915050565b6000600883026111617fffffffffffffffffffffffffffffffffffffffffffffffffffffffffffffffff82611124565b61116b8683611124565b95508019841693508086168417925050509392505050565b6000819050919050565b60006111a86111a361119e84610a1d565b611183565b610a1d565b9050919050565b6000819050919050565b6111c28361118d565b6111d66111ce826111af565b848454611131565b825550505050565b600090565b6111eb6111de565b6111f68184846111b9565b505050565b5b8181101561121a5761120f6000826111e3565b6001810190506111fc565b5050565b601f82111561125f57611230816110ff565b61123984611114565b81016020851015611248578190505b61125c61125485611114565b8301826111fb565b50505b505050565b600082821c905092915050565b600061128260001984600802611264565b1980831691505092915050565b600061129b8383611271565b9150826002028217905092915050565b6112b482610c7a565b67ffffffffffffffff8111156112cd576112cc610a9b565b5b6112d782546110ce565b6112e282828561121e565b600060209050601f8311600181146113155760008415611303578287015190505b61130d858261128f565b865550611375565b601f198416611323866110ff565b60005b8281101561134b57848901518255600182019150602085019450602081019050611326565b868310156113685784890151611364601f891682611271565b8355505b6001600288020188555050505b505050505050565b600061138882610a1d565b915061139383610a1d565b92508282039050818111156113ab576113aa610fff565b5b92915050565b600082905092915050565b6113c683836113b1565b67ffffffffffffffff8111156113df576113de610a9b565b5b6113e982546110ce565b6113f482828561121e565b6000601f8311600181146114235760008415611411578287013590505b61141b858261128f565b865550611483565b601f198416611431866110ff565b60005b8281101561145957848901358255600182019150602085019450602081019050611434565b868310156114765784890135611472601f891682611271565b8355505b6001600288020188555050505b50505050505050565b60006114988385610c85565b93506114a5838584610b47565b6114ae83610a8a565b840190509392505050565b60006040820190506114ce6000830186610c0f565b81810360208301526114e181848661148c565b9050949350505050565b7f4e487b7100000000000000000000000000000000000000000000000000000000600052603260045260246000fdfea264697066735822122072b8e280629b39ebc64b36435d38673ff273065756d0bcaa2a7ba0159698773d64736f6c63430008110033",
  "linkReferences": {},
  "deployedLinkReferences": {}
}