{
  "_format": "hh-sol-artifact-1",
  "contractName": "Twitter",
  "sourceName": "contracts/Twitter.sol",
  "abi": [
    {
      "inputs": [],
      "stateMutability": "nonpayable",
      "type": "constructor"
    },
    {
      "inputs": [],
      "name": "DeletedTweet",
      "type": "error"
    },
    {
      "inputs": [],
      "name": "IdError",
      "type": "error"
    },
    {
      "inputs": [],
      "name": "InvalidMessage",
      "type": "error"
    },
    {
      "inputs": [],
      "name": "LikeTweetError",
      "type": "error"
    },
    {
      "inputs": [],
      "name": "UnauthorizedAccess",
      "type": "error"
    },
    {
      "inputs": [],
      "name": "UnlikeTweetError",
      "type": "error"
    },
    {
      "anonymous": false,
      "inputs": [
        {
          "indexed": false,
          "internalType": "uint256",
          "name": "index",
          "type": "uint256"
        },
        {
          "indexed": false,
          "internalType": "bool",
          "name": "status",
          "type": "bool"
        }
      ],
      "name": "DeleteTweet",
      "type": "event"
    },
    {
      "anonymous": false,
      "inputs": [
        {
          "indexed": false,
          "internalType": "uint256",
          "name": "index",
          "type": "uint256"
        },
        {
          "indexed": false,
          "internalType": "string",
          "name": "newTweet",
          "type": "string"
        }
      ],
      "name": "EditTweet",
      "type": "event"
    },
    {
      "anonymous": false,
      "inputs": [
        {
          "indexed": false,
          "internalType": "uint256",
          "name": "index",
          "type": "uint256"
        },
        {
          "indexed": false,
          "internalType": "uint256",
          "name": "likes",
          "type": "uint256"
        }
      ],
      "name": "LikeTweet",
      "type": "event"
    },
    {
      "anonymous": false,
      "inputs": [
        {
          "indexed": false,
          "internalType": "uint256",
          "name": "index",
          "type": "uint256"
        }
      ],
      "name": "NewTweet",
      "type": "event"
    },
    {
      "inputs": [
        {
          "internalType": "string",
          "name": "message",
          "type": "string"
        }
      ],
      "name": "addTweet",
      "outputs": [],
      "stateMutability": "nonpayable",
      "type": "function"
    },
    {
      "inputs": [
        {
          "internalType": "uint256",
          "name": "index",
          "type": "uint256"
        },
        {
          "internalType": "string",
          "name": "newMessage",
          "type": "string"
        }
      ],
      "name": "editTweet",
      "outputs": [],
      "stateMutability": "nonpayable",
      "type": "function"
    },
    {
      "inputs": [],
      "name": "getTweets",
      "outputs": [
        {
          "components": [
            {
              "internalType": "uint256",
              "name": "id",
              "type": "uint256"
            },
            {
              "internalType": "uint256",
              "name": "tweetTime",
              "type": "uint256"
            },
            {
              "internalType": "address",
              "name": "senderAddress",
              "type": "address"
            },
            {
              "internalType": "string",
              "name": "tweet",
              "type": "string"
            },
            {
              "internalType": "bool",
              "name": "isActive",
              "type": "bool"
            },
            {
              "internalType": "uint256",
              "name": "likes",
              "type": "uint256"
            }
          ],
          "internalType": "struct Twitter.Tweet[]",
          "name": "",
          "type": "tuple[]"
        }
      ],
      "stateMutability": "view",
      "type": "function"
    },
    {
      "inputs": [],
      "name": "getValidTweetsLength",
      "outputs": [
        {
          "internalType": "uint256",
          "name": "",
          "type": "uint256"
        }
      ],
      "stateMutability": "view",
      "type": "function"
    },
    {
      "inputs": [
        {
          "internalType": "uint256",
          "name": "index",
          "type": "uint256"
        }
      ],
      "name": "likeTweet",
      "outputs": [],
      "stateMutability": "nonpayable",
      "type": "function"
    },
    {
      "inputs": [
        {
          "internalType": "uint256",
          "name": "index",
          "type": "uint256"
        }
      ],
      "name": "remove",
      "outputs": [],
      "stateMutability": "nonpayable",
      "type": "function"
    },
    {
      "inputs": [
        {
          "internalType": "uint256",
          "name": "index",
          "type": "uint256"
        }
      ],
      "name": "unlikeTweet",
      "outputs": [],
      "stateMutability": "nonpayable",
      "type": "function"
    }
  ],
  "bytecode": "0x608060405234801561001057600080fd5b506000808190555060006001819055506119a38061002f6000396000f3fe608060405234801561001057600080fd5b506004361061007d5760003560e01c80635ffc6ceb1161005b5780635ffc6ceb146100d657806387f10dbd146100f2578063eae9e13514610110578063fc86741f1461012c5761007d565b80631d86e904146100825780634cc822151461009e57806359ee12bc146100ba575b600080fd5b61009c60048036038101906100979190610ed8565b61014a565b005b6100b860048036038101906100b39190610ed8565b6103e2565b005b6100d460048036038101906100cf919061104b565b6105c7565b005b6100f060048036038101906100eb9190610ed8565b610752565b005b6100fa6109e9565b60405161010791906110a3565b60405180910390f35b61012a6004803603810190610125919061111e565b610a00565b005b610134610c18565b60405161014191906113b3565b60405180910390f35b600073ffffffffffffffffffffffffffffffffffffffff166002600083815260200190815260200160002060020160009054906101000a900473ffffffffffffffffffffffffffffffffffffffff1673ffffffffffffffffffffffffffffffffffffffff16036101e6576040517feb00248600000000000000000000000000000000000000000000000000000000815260040160405180910390fd5b60006002600083815260200190815260200160002090508060040160009054906101000a900460ff16610245576040517f29de661200000000000000000000000000000000000000000000000000000000815260040160405180910390fd5b600060036000848152602001908152602001600020905060005b81805490508110156103ac573373ffffffffffffffffffffffffffffffffffffffff16828281548110610295576102946113d5565b5b9060005260206000200160009054906101000a900473ffffffffffffffffffffffffffffffffffffffff1673ffffffffffffffffffffffffffffffffffffffff16036103995760008282815481106102f0576102ef6113d5565b5b9060005260206000200160006101000a81548173ffffffffffffffffffffffffffffffffffffffff021916908373ffffffffffffffffffffffffffffffffffffffff160217905550600183600501600082825461034d9190611433565b925050819055507fce95d00b5d978b6c1ea0db3dea02ad6b73bd5f44eaf3626d9c7c30dedbca6966848460050154604051610389929190611467565b60405180910390a15050506103df565b80806103a490611490565b91505061025f565b506040517f4752041100000000000000000000000000000000000000000000000000000000815260040160405180910390fd5b50565b6000600260008381526020019081526020016000209050600073ffffffffffffffffffffffffffffffffffffffff168160020160009054906101000a900473ffffffffffffffffffffffffffffffffffffffff1673ffffffffffffffffffffffffffffffffffffffff1603610483576040517feb00248600000000000000000000000000000000000000000000000000000000815260040160405180910390fd5b8060020160009054906101000a900473ffffffffffffffffffffffffffffffffffffffff1673ffffffffffffffffffffffffffffffffffffffff163373ffffffffffffffffffffffffffffffffffffffff161461050c576040517f344fd58600000000000000000000000000000000000000000000000000000000815260040160405180910390fd5b8060040160009054906101000a900460ff16610554576040517f29de661200000000000000000000000000000000000000000000000000000000815260040160405180910390fd5b60008160040160006101000a81548160ff0219169083151502179055506001600081548092919061058490611490565b91905055507f2430f837dd2fb40e08c064be9db3d0cf2a7a21f8fe716a2a41787dafc66a7e2a8260006040516105bb9291906114e7565b60405180910390a15050565b61011881511115610604576040517f6eca2e4b00000000000000000000000000000000000000000000000000000000815260040160405180910390fd5b6040518060c0016040528060005481526020014281526020013373ffffffffffffffffffffffffffffffffffffffff16815260200182815260200160011515815260200160008152506002600080548152602001908152602001600020600082015181600001556020820151816001015560408201518160020160006101000a81548173ffffffffffffffffffffffffffffffffffffffff021916908373ffffffffffffffffffffffffffffffffffffffff16021790555060608201518160030190816106d1919061171c565b5060808201518160040160006101000a81548160ff02191690831515021790555060a0820151816005015590505060008081548092919061071190611490565b91905055507f63f98618fdb05cc256b39a96bc1387da845aaa913878ac10cc93239bdc4a37b660005460405161074791906110a3565b60405180910390a150565b600073ffffffffffffffffffffffffffffffffffffffff166002600083815260200190815260200160002060020160009054906101000a900473ffffffffffffffffffffffffffffffffffffffff1673ffffffffffffffffffffffffffffffffffffffff16036107ee576040517feb00248600000000000000000000000000000000000000000000000000000000815260040160405180910390fd5b60006002600083815260200190815260200160002090508060040160009054906101000a900460ff1661084d576040517f29de661200000000000000000000000000000000000000000000000000000000815260040160405180910390fd5b600060036000848152602001908152602001600020905060005b8180549050811015610928573373ffffffffffffffffffffffffffffffffffffffff1682828154811061089d5761089c6113d5565b5b9060005260206000200160009054906101000a900473ffffffffffffffffffffffffffffffffffffffff1673ffffffffffffffffffffffffffffffffffffffff1603610915576040517f89ea72fe00000000000000000000000000000000000000000000000000000000815260040160405180910390fd5b808061092090611490565b915050610867565b50600182600501600082825461093e91906117ee565b9250508190555080339080600181540180825580915050600190039060005260206000200160009091909190916101000a81548173ffffffffffffffffffffffffffffffffffffffff021916908373ffffffffffffffffffffffffffffffffffffffff1602179055507fce95d00b5d978b6c1ea0db3dea02ad6b73bd5f44eaf3626d9c7c30dedbca69668383600501546040516109dc929190611467565b60405180910390a1505050565b60006001546000546109fb9190611433565b905090565b610118828290501115610a3f576040517f6eca2e4b00000000000000000000000000000000000000000000000000000000815260040160405180910390fd5b600073ffffffffffffffffffffffffffffffffffffffff166002600085815260200190815260200160002060020160009054906101000a900473ffffffffffffffffffffffffffffffffffffffff1673ffffffffffffffffffffffffffffffffffffffff1603610adb576040517feb00248600000000000000000000000000000000000000000000000000000000815260040160405180910390fd5b60006002600085815260200190815260200160002090508060020160009054906101000a900473ffffffffffffffffffffffffffffffffffffffff1673ffffffffffffffffffffffffffffffffffffffff163373ffffffffffffffffffffffffffffffffffffffff1614610b7b576040517f344fd58600000000000000000000000000000000000000000000000000000000815260040160405180910390fd5b8060040160009054906101000a900460ff16610bc3576040517f29de661200000000000000000000000000000000000000000000000000000000815260040160405180910390fd5b8282826003019182610bd692919061182d565b507f171abca5914742d52ad6c6b370521d2daaedebf4a57af6e69a18c723d9d6fdce848484604051610c0a9392919061193b565b60405180910390a150505050565b60606000600154600054610c2c9190611433565b67ffffffffffffffff811115610c4557610c44610f20565b5b604051908082528060200260200182016040528015610c7e57816020015b610c6b610e40565b815260200190600190039081610c635790505b5090506000805b600054811015610e37576002600082815260200190815260200160002060040160009054906101000a900460ff1615610e2457600260008281526020019081526020016000206040518060c001604052908160008201548152602001600182015481526020016002820160009054906101000a900473ffffffffffffffffffffffffffffffffffffffff1673ffffffffffffffffffffffffffffffffffffffff1673ffffffffffffffffffffffffffffffffffffffff168152602001600382018054610d509061153f565b80601f0160208091040260200160405190810160405280929190818152602001828054610d7c9061153f565b8015610dc95780601f10610d9e57610100808354040283529160200191610dc9565b820191906000526020600020905b815481529060010190602001808311610dac57829003601f168201915b505050505081526020016004820160009054906101000a900460ff16151515158152602001600582015481525050838381518110610e0a57610e096113d5565b5b60200260200101819052508180610e2090611490565b9250505b8080610e2f90611490565b915050610c85565b50819250505090565b6040518060c001604052806000815260200160008152602001600073ffffffffffffffffffffffffffffffffffffffff16815260200160608152602001600015158152602001600081525090565b6000604051905090565b600080fd5b600080fd5b6000819050919050565b610eb581610ea2565b8114610ec057600080fd5b50565b600081359050610ed281610eac565b92915050565b600060208284031215610eee57610eed610e98565b5b6000610efc84828501610ec3565b91505092915050565b600080fd5b600080fd5b6000601f19601f8301169050919050565b7f4e487b7100000000000000000000000000000000000000000000000000000000600052604160045260246000fd5b610f5882610f0f565b810181811067ffffffffffffffff82111715610f7757610f76610f20565b5b80604052505050565b6000610f8a610e8e565b9050610f968282610f4f565b919050565b600067ffffffffffffffff821115610fb657610fb5610f20565b5b610fbf82610f0f565b9050602081019050919050565b82818337600083830152505050565b6000610fee610fe984610f9b565b610f80565b90508281526020810184848401111561100a57611009610f0a565b5b611015848285610fcc565b509392505050565b600082601f83011261103257611031610f05565b5b8135611042848260208601610fdb565b91505092915050565b60006020828403121561106157611060610e98565b5b600082013567ffffffffffffffff81111561107f5761107e610e9d565b5b61108b8482850161101d565b91505092915050565b61109d81610ea2565b82525050565b60006020820190506110b86000830184611094565b92915050565b600080fd5b600080fd5b60008083601f8401126110de576110dd610f05565b5b8235905067ffffffffffffffff8111156110fb576110fa6110be565b5b602083019150836001820283011115611117576111166110c3565b5b9250929050565b60008060006040848603121561113757611136610e98565b5b600061114586828701610ec3565b935050602084013567ffffffffffffffff81111561116657611165610e9d565b5b611172868287016110c8565b92509250509250925092565b600081519050919050565b600082825260208201905092915050565b6000819050602082019050919050565b6111b381610ea2565b82525050565b600073ffffffffffffffffffffffffffffffffffffffff82169050919050565b60006111e4826111b9565b9050919050565b6111f4816111d9565b82525050565b600081519050919050565b600082825260208201905092915050565b60005b83811015611234578082015181840152602081019050611219565b60008484015250505050565b600061124b826111fa565b6112558185611205565b9350611265818560208601611216565b61126e81610f0f565b840191505092915050565b60008115159050919050565b61128e81611279565b82525050565b600060c0830160008301516112ac60008601826111aa565b5060208301516112bf60208601826111aa565b5060408301516112d260408601826111eb565b50606083015184820360608601526112ea8282611240565b91505060808301516112ff6080860182611285565b5060a083015161131260a08601826111aa565b508091505092915050565b60006113298383611294565b905092915050565b6000602082019050919050565b60006113498261117e565b6113538185611189565b9350836020820285016113658561119a565b8060005b858110156113a15784840389528151611382858261131d565b945061138d83611331565b925060208a01995050600181019050611369565b50829750879550505050505092915050565b600060208201905081810360008301526113cd818461133e565b905092915050565b7f4e487b7100000000000000000000000000000000000000000000000000000000600052603260045260246000fd5b7f4e487b7100000000000000000000000000000000000000000000000000000000600052601160045260246000fd5b600061143e82610ea2565b915061144983610ea2565b925082820390508181111561146157611460611404565b5b92915050565b600060408201905061147c6000830185611094565b6114896020830184611094565b9392505050565b600061149b82610ea2565b91507fffffffffffffffffffffffffffffffffffffffffffffffffffffffffffffffff82036114cd576114cc611404565b5b600182019050919050565b6114e181611279565b82525050565b60006040820190506114fc6000830185611094565b61150960208301846114d8565b9392505050565b7f4e487b7100000000000000000000000000000000000000000000000000000000600052602260045260246000fd5b6000600282049050600182168061155757607f821691505b60208210810361156a57611569611510565b5b50919050565b60008190508160005260206000209050919050565b60006020601f8301049050919050565b600082821b905092915050565b6000600883026115d27fffffffffffffffffffffffffffffffffffffffffffffffffffffffffffffffff82611595565b6115dc8683611595565b95508019841693508086168417925050509392505050565b6000819050919050565b600061161961161461160f84610ea2565b6115f4565b610ea2565b9050919050565b6000819050919050565b611633836115fe565b61164761163f82611620565b8484546115a2565b825550505050565b600090565b61165c61164f565b61166781848461162a565b505050565b5b8181101561168b57611680600082611654565b60018101905061166d565b5050565b601f8211156116d0576116a181611570565b6116aa84611585565b810160208510156116b9578190505b6116cd6116c585611585565b83018261166c565b50505b505050565b600082821c905092915050565b60006116f3600019846008026116d5565b1980831691505092915050565b600061170c83836116e2565b9150826002028217905092915050565b611725826111fa565b67ffffffffffffffff81111561173e5761173d610f20565b5b611748825461153f565b61175382828561168f565b600060209050601f8311600181146117865760008415611774578287015190505b61177e8582611700565b8655506117e6565b601f19841661179486611570565b60005b828110156117bc57848901518255600182019150602085019450602081019050611797565b868310156117d957848901516117d5601f8916826116e2565b8355505b6001600288020188555050505b505050505050565b60006117f982610ea2565b915061180483610ea2565b925082820190508082111561181c5761181b611404565b5b92915050565b600082905092915050565b6118378383611822565b67ffffffffffffffff8111156118505761184f610f20565b5b61185a825461153f565b61186582828561168f565b6000601f8311600181146118945760008415611882578287013590505b61188c8582611700565b8655506118f4565b601f1984166118a286611570565b60005b828110156118ca578489013582556001820191506020850194506020810190506118a5565b868310156118e757848901356118e3601f8916826116e2565b8355505b6001600288020188555050505b50505050505050565b600082825260208201905092915050565b600061191a83856118fd565b9350611927838584610fcc565b61193083610f0f565b840190509392505050565b60006040820190506119506000830186611094565b818103602083015261196381848661190e565b905094935050505056fea264697066735822122089d9b496e746c76dc52cff3f868e7e2a77b4707eb7fe58950b0bd7b63ccdd0c464736f6c63430008110033",
  "linkReferences": {},
  "deployedLinkReferences": {}
}